{
  "contractName": "Addition",
  "abi": [
    {
      "inputs": [],
      "name": "Assia",
      "outputs": [
        {
          "internalType": "uint256",
          "name": "",
          "type": "uint256"
        }
      ],
      "stateMutability": "view",
      "type": "function"
    },
    {
      "inputs": [],
      "name": "result",
      "outputs": [
        {
          "internalType": "uint256",
          "name": "",
          "type": "uint256"
        }
      ],
      "stateMutability": "view",
      "type": "function"
    },
    {
      "inputs": [
        {
          "internalType": "uint256",
          "name": "a",
          "type": "uint256"
        },
        {
          "internalType": "uint256",
          "name": "b",
          "type": "uint256"
        }
      ],
      "name": "add",
      "outputs": [],
      "stateMutability": "nonpayable",
      "type": "function"
    },
    {
      "inputs": [],
      "name": "getResult",
      "outputs": [
        {
          "internalType": "uint256",
          "name": "",
          "type": "uint256"
        }
      ],
      "stateMutability": "view",
      "type": "function"
    }
  ],
  "bytecode": "0x608060405234801561001057600080fd5b50610249806100206000396000f3fe608060405234801561001057600080fd5b506004361061004c5760003560e01c80636537214714610051578063771602f71461006f578063b0202a641461008b578063de292789146100a9575b600080fd5b6100596100c7565b6040516100669190610152565b60405180910390f35b61008960048036038101906100849190610107565b6100cd565b005b6100936100e3565b6040516100a09190610152565b60405180910390f35b6100b16100e9565b6040516100be9190610152565b60405180910390f35b60005481565b80826100d9919061016d565b6000819055505050565b60015481565b60008054905090565b600081359050610101816101fc565b92915050565b6000806040838503121561011a57600080fd5b6000610128858286016100f2565b9250506020610139858286016100f2565b9150509250929050565b61014c816101c3565b82525050565b60006020820190506101676000830184610143565b92915050565b6000610178826101c3565b9150610183836101c3565b9250827fffffffffffffffffffffffffffffffffffffffffffffffffffffffffffffffff038211156101b8576101b76101cd565b5b828201905092915050565b6000819050919050565b7f4e487b7100000000000000000000000000000000000000000000000000000000600052601160045260246000fd5b610205816101c3565b811461021057600080fd5b5056fea26469706673582212209611b1eab52892647c23b39eeb25197888968d2649ec4e8cbce2c2da54c9f0cc64736f6c63430008000033",
  "immutableReferences": {},
  "source": "// SPDX-License-Identifier: MIT\r\npragma solidity ^0.8.0;\r\n\r\ncontract Addition {\r\n    uint256 public result;\r\n    uint256 public Assia;\r\n\r\n    // Function to add two numbers\r\n    function add(uint256 a, uint256 b) public {\r\n        result = a + b;\r\n    }\r\n    function getResult() public view returns (uint256) {\r\n        return result;\r\n    }\r\n}\r\n",
  "sourcePath": "/home/lucky/Downloads/adder_dapp/contracts/Adder.sol",
  "compiler": {
    "name": "solc",
    "version": "0.8.0+commit.c7dfd78e.Emscripten.clang"
  },
  "schemaVersion": "3.4.16",
  "updatedAt": "2024-05-20T07:56:10.692Z",
  "devdoc": {
    "kind": "dev",
    "methods": {},
    "version": 1
  },
  "userdoc": {
    "kind": "user",
    "methods": {},
    "version": 1
  }
}